{
  "contracts/Token.sol": {
    "Token": {
      "abi": [
        {
          "inputs": [
            {
              "internalType": "uint256",
              "name": "totalSupply_",
              "type": "uint256"
            }
          ],
          "stateMutability": "nonpayable",
          "type": "constructor"
        },
        {
          "anonymous": false,
          "inputs": [
            {
              "indexed": false,
              "internalType": "uint256",
              "name": "amount",
              "type": "uint256"
            },
            {
              "indexed": false,
              "internalType": "address",
              "name": "to",
              "type": "address"
            }
          ],
          "name": "Transfer",
          "type": "event"
        },
        {
          "inputs": [
            {
              "internalType": "address",
              "name": "_account",
              "type": "address"
            }
          ],
          "name": "balanceOf",
          "outputs": [
            {
              "internalType": "uint256",
              "name": "",
              "type": "uint256"
            }
          ],
          "stateMutability": "view",
          "type": "function"
        },
        {
          "inputs": [],
          "name": "getOwnerAddress",
          "outputs": [
            {
              "internalType": "address",
              "name": "",
              "type": "address"
            }
          ],
          "stateMutability": "view",
          "type": "function"
        },
        {
          "inputs": [],
          "name": "getTotalSupply",
          "outputs": [
            {
              "internalType": "uint256",
              "name": "",
              "type": "uint256"
            }
          ],
          "stateMutability": "view",
          "type": "function"
        },
        {
          "inputs": [],
          "name": "name",
          "outputs": [
            {
              "internalType": "string",
              "name": "",
              "type": "string"
            }
          ],
          "stateMutability": "view",
          "type": "function"
        },
        {
          "inputs": [
            {
              "internalType": "uint256",
              "name": "_amount",
              "type": "uint256"
            },
            {
              "internalType": "address",
              "name": "_to",
              "type": "address"
            }
          ],
          "name": "transfer",
          "outputs": [],
          "stateMutability": "nonpayable",
          "type": "function"
        }
      ],
      "evm": {
        "bytecode": {
          "linkReferences": {},
          "object": "608060405234801561001057600080fd5b506040516108c33803806108c3833981810160405281019061003291906100fc565b8060018190555033600260006101000a81548173ffffffffffffffffffffffffffffffffffffffff021916908373ffffffffffffffffffffffffffffffffffffffff160217905550600154600080600260009054906101000a900473ffffffffffffffffffffffffffffffffffffffff1673ffffffffffffffffffffffffffffffffffffffff1673ffffffffffffffffffffffffffffffffffffffff1681526020019081526020016000208190555050610146565b6000815190506100f68161012f565b92915050565b60006020828403121561010e57600080fd5b600061011c848285016100e7565b91505092915050565b6000819050919050565b61013881610125565b811461014357600080fd5b50565b61076e806101556000396000f3fe608060405234801561001057600080fd5b50600436106100575760003560e01c806306fdde031461005c5780630c4f65bd1461007a57806370a0823114610098578063b7760c8f146100c8578063c4e41b22146100e4575b600080fd5b610064610102565b604051610071919061050f565b60405180910390f35b61008261013b565b60405161008f91906104f4565b60405180910390f35b6100b260048036038101906100ad91906103b8565b610165565b6040516100bf9190610571565b60405180910390f35b6100e260048036038101906100dd91906103e1565b61021c565b005b6100ec610384565b6040516100f99190610571565b60405180910390f35b6040518060400160405280600881526020017f4d7920546f6b656e00000000000000000000000000000000000000000000000081525081565b6000600260009054906101000a900473ffffffffffffffffffffffffffffffffffffffff16905090565b60008073ffffffffffffffffffffffffffffffffffffffff168273ffffffffffffffffffffffffffffffffffffffff1614156101d6576040517f08c379a00000000000000000000000000000000000000000000000000000000081526004016101cd90610551565b60405180910390fd5b6000808373ffffffffffffffffffffffffffffffffffffffff1673ffffffffffffffffffffffffffffffffffffffff168152602001908152602001600020549050919050565b816000803373ffffffffffffffffffffffffffffffffffffffff1673ffffffffffffffffffffffffffffffffffffffff16815260200190815260200160002054101561029d576040517f08c379a000000000000000000000000000000000000000000000000000000000815260040161029490610531565b60405180910390fd5b816000803373ffffffffffffffffffffffffffffffffffffffff1673ffffffffffffffffffffffffffffffffffffffff16815260200190815260200160002060008282546102eb9190610627565b92505081905550816000808373ffffffffffffffffffffffffffffffffffffffff1673ffffffffffffffffffffffffffffffffffffffff168152602001908152602001600020600082825461034091906105d1565b925050819055507fabe1dcf9fcb8e5fb309db76bcab112a217aa5754d0f038921282bfe7907aa516828260405161037892919061058c565b60405180910390a15050565b6000600154905090565b60008135905061039d8161070a565b92915050565b6000813590506103b281610721565b92915050565b6000602082840312156103ca57600080fd5b60006103d88482850161038e565b91505092915050565b600080604083850312156103f457600080fd5b6000610402858286016103a3565b92505060206104138582860161038e565b9150509250929050565b6104268161065b565b82525050565b6000610437826105b5565b61044181856105c0565b9350610451818560208601610697565b61045a816106f9565b840191505092915050565b60006104726010836105c0565b91507f4e6f7420656e6f7567682066756e6473000000000000000000000000000000006000830152602082019050919050565b60006104b2601e836105c0565b91507f43616e6e6f7420636f6d706c6574652074686973206f7065726174696f6e00006000830152602082019050919050565b6104ee8161068d565b82525050565b6000602082019050610509600083018461041d565b92915050565b60006020820190508181036000830152610529818461042c565b905092915050565b6000602082019050818103600083015261054a81610465565b9050919050565b6000602082019050818103600083015261056a816104a5565b9050919050565b600060208201905061058660008301846104e5565b92915050565b60006040820190506105a160008301856104e5565b6105ae602083018461041d565b9392505050565b600081519050919050565b600082825260208201905092915050565b60006105dc8261068d565b91506105e78361068d565b9250827fffffffffffffffffffffffffffffffffffffffffffffffffffffffffffffffff0382111561061c5761061b6106ca565b5b828201905092915050565b60006106328261068d565b915061063d8361068d565b9250828210156106505761064f6106ca565b5b828203905092915050565b60006106668261066d565b9050919050565b600073ffffffffffffffffffffffffffffffffffffffff82169050919050565b6000819050919050565b60005b838110156106b557808201518184015260208101905061069a565b838111156106c4576000848401525b50505050565b7f4e487b7100000000000000000000000000000000000000000000000000000000600052601160045260246000fd5b6000601f19601f8301169050919050565b6107138161065b565b811461071e57600080fd5b50565b61072a8161068d565b811461073557600080fd5b5056fea264697066735822122040eeb22366a5bf4401cb5d2c1e00d59459ec3019026d19f542180f0e8aff6c6e64736f6c63430008000033",
          "opcodes": "PUSH1 0x80 PUSH1 0x40 MSTORE CALLVALUE DUP1 ISZERO PUSH2 0x10 JUMPI PUSH1 0x0 DUP1 REVERT JUMPDEST POP PUSH1 0x40 MLOAD PUSH2 0x8C3 CODESIZE SUB DUP1 PUSH2 0x8C3 DUP4 CODECOPY DUP2 DUP2 ADD PUSH1 0x40 MSTORE DUP2 ADD SWAP1 PUSH2 0x32 SWAP2 SWAP1 PUSH2 0xFC JUMP JUMPDEST DUP1 PUSH1 0x1 DUP2 SWAP1 SSTORE POP CALLER PUSH1 0x2 PUSH1 0x0 PUSH2 0x100 EXP DUP2 SLOAD DUP2 PUSH20 0xFFFFFFFFFFFFFFFFFFFFFFFFFFFFFFFFFFFFFFFF MUL NOT AND SWAP1 DUP4 PUSH20 0xFFFFFFFFFFFFFFFFFFFFFFFFFFFFFFFFFFFFFFFF AND MUL OR SWAP1 SSTORE POP PUSH1 0x1 SLOAD PUSH1 0x0 DUP1 PUSH1 0x2 PUSH1 0x0 SWAP1 SLOAD SWAP1 PUSH2 0x100 EXP SWAP1 DIV PUSH20 0xFFFFFFFFFFFFFFFFFFFFFFFFFFFFFFFFFFFFFFFF AND PUSH20 0xFFFFFFFFFFFFFFFFFFFFFFFFFFFFFFFFFFFFFFFF AND PUSH20 0xFFFFFFFFFFFFFFFFFFFFFFFFFFFFFFFFFFFFFFFF AND DUP2 MSTORE PUSH1 0x20 ADD SWAP1 DUP2 MSTORE PUSH1 0x20 ADD PUSH1 0x0 KECCAK256 DUP2 SWAP1 SSTORE POP POP PUSH2 0x146 JUMP JUMPDEST PUSH1 0x0 DUP2 MLOAD SWAP1 POP PUSH2 0xF6 DUP2 PUSH2 0x12F JUMP JUMPDEST SWAP3 SWAP2 POP POP JUMP JUMPDEST PUSH1 0x0 PUSH1 0x20 DUP3 DUP5 SUB SLT ISZERO PUSH2 0x10E JUMPI PUSH1 0x0 DUP1 REVERT JUMPDEST PUSH1 0x0 PUSH2 0x11C DUP5 DUP3 DUP6 ADD PUSH2 0xE7 JUMP JUMPDEST SWAP2 POP POP SWAP3 SWAP2 POP POP JUMP JUMPDEST PUSH1 0x0 DUP2 SWAP1 POP SWAP2 SWAP1 POP JUMP JUMPDEST PUSH2 0x138 DUP2 PUSH2 0x125 JUMP JUMPDEST DUP2 EQ PUSH2 0x143 JUMPI PUSH1 0x0 DUP1 REVERT JUMPDEST POP JUMP JUMPDEST PUSH2 0x76E DUP1 PUSH2 0x155 PUSH1 0x0 CODECOPY PUSH1 0x0 RETURN INVALID PUSH1 0x80 PUSH1 0x40 MSTORE CALLVALUE DUP1 ISZERO PUSH2 0x10 JUMPI PUSH1 0x0 DUP1 REVERT JUMPDEST POP PUSH1 0x4 CALLDATASIZE LT PUSH2 0x57 JUMPI PUSH1 0x0 CALLDATALOAD PUSH1 0xE0 SHR DUP1 PUSH4 0x6FDDE03 EQ PUSH2 0x5C JUMPI DUP1 PUSH4 0xC4F65BD EQ PUSH2 0x7A JUMPI DUP1 PUSH4 0x70A08231 EQ PUSH2 0x98 JUMPI DUP1 PUSH4 0xB7760C8F EQ PUSH2 0xC8 JUMPI DUP1 PUSH4 0xC4E41B22 EQ PUSH2 0xE4 JUMPI JUMPDEST PUSH1 0x0 DUP1 REVERT JUMPDEST PUSH2 0x64 PUSH2 0x102 JUMP JUMPDEST PUSH1 0x40 MLOAD PUSH2 0x71 SWAP2 SWAP1 PUSH2 0x50F JUMP JUMPDEST PUSH1 0x40 MLOAD DUP1 SWAP2 SUB SWAP1 RETURN JUMPDEST PUSH2 0x82 PUSH2 0x13B JUMP JUMPDEST PUSH1 0x40 MLOAD PUSH2 0x8F SWAP2 SWAP1 PUSH2 0x4F4 JUMP JUMPDEST PUSH1 0x40 MLOAD DUP1 SWAP2 SUB SWAP1 RETURN JUMPDEST PUSH2 0xB2 PUSH1 0x4 DUP1 CALLDATASIZE SUB DUP2 ADD SWAP1 PUSH2 0xAD SWAP2 SWAP1 PUSH2 0x3B8 JUMP JUMPDEST PUSH2 0x165 JUMP JUMPDEST PUSH1 0x40 MLOAD PUSH2 0xBF SWAP2 SWAP1 PUSH2 0x571 JUMP JUMPDEST PUSH1 0x40 MLOAD DUP1 SWAP2 SUB SWAP1 RETURN JUMPDEST PUSH2 0xE2 PUSH1 0x4 DUP1 CALLDATASIZE SUB DUP2 ADD SWAP1 PUSH2 0xDD SWAP2 SWAP1 PUSH2 0x3E1 JUMP JUMPDEST PUSH2 0x21C JUMP JUMPDEST STOP JUMPDEST PUSH2 0xEC PUSH2 0x384 JUMP JUMPDEST PUSH1 0x40 MLOAD PUSH2 0xF9 SWAP2 SWAP1 PUSH2 0x571 JUMP JUMPDEST PUSH1 0x40 MLOAD DUP1 SWAP2 SUB SWAP1 RETURN JUMPDEST PUSH1 0x40 MLOAD DUP1 PUSH1 0x40 ADD PUSH1 0x40 MSTORE DUP1 PUSH1 0x8 DUP2 MSTORE PUSH1 0x20 ADD PUSH32 0x4D7920546F6B656E000000000000000000000000000000000000000000000000 DUP2 MSTORE POP DUP2 JUMP JUMPDEST PUSH1 0x0 PUSH1 0x2 PUSH1 0x0 SWAP1 SLOAD SWAP1 PUSH2 0x100 EXP SWAP1 DIV PUSH20 0xFFFFFFFFFFFFFFFFFFFFFFFFFFFFFFFFFFFFFFFF AND SWAP1 POP SWAP1 JUMP JUMPDEST PUSH1 0x0 DUP1 PUSH20 0xFFFFFFFFFFFFFFFFFFFFFFFFFFFFFFFFFFFFFFFF AND DUP3 PUSH20 0xFFFFFFFFFFFFFFFFFFFFFFFFFFFFFFFFFFFFFFFF AND EQ ISZERO PUSH2 0x1D6 JUMPI PUSH1 0x40 MLOAD PUSH32 0x8C379A000000000000000000000000000000000000000000000000000000000 DUP2 MSTORE PUSH1 0x4 ADD PUSH2 0x1CD SWAP1 PUSH2 0x551 JUMP JUMPDEST PUSH1 0x40 MLOAD DUP1 SWAP2 SUB SWAP1 REVERT JUMPDEST PUSH1 0x0 DUP1 DUP4 PUSH20 0xFFFFFFFFFFFFFFFFFFFFFFFFFFFFFFFFFFFFFFFF AND PUSH20 0xFFFFFFFFFFFFFFFFFFFFFFFFFFFFFFFFFFFFFFFF AND DUP2 MSTORE PUSH1 0x20 ADD SWAP1 DUP2 MSTORE PUSH1 0x20 ADD PUSH1 0x0 KECCAK256 SLOAD SWAP1 POP SWAP2 SWAP1 POP JUMP JUMPDEST DUP2 PUSH1 0x0 DUP1 CALLER PUSH20 0xFFFFFFFFFFFFFFFFFFFFFFFFFFFFFFFFFFFFFFFF AND PUSH20 0xFFFFFFFFFFFFFFFFFFFFFFFFFFFFFFFFFFFFFFFF AND DUP2 MSTORE PUSH1 0x20 ADD SWAP1 DUP2 MSTORE PUSH1 0x20 ADD PUSH1 0x0 KECCAK256 SLOAD LT ISZERO PUSH2 0x29D JUMPI PUSH1 0x40 MLOAD PUSH32 0x8C379A000000000000000000000000000000000000000000000000000000000 DUP2 MSTORE PUSH1 0x4 ADD PUSH2 0x294 SWAP1 PUSH2 0x531 JUMP JUMPDEST PUSH1 0x40 MLOAD DUP1 SWAP2 SUB SWAP1 REVERT JUMPDEST DUP2 PUSH1 0x0 DUP1 CALLER PUSH20 0xFFFFFFFFFFFFFFFFFFFFFFFFFFFFFFFFFFFFFFFF AND PUSH20 0xFFFFFFFFFFFFFFFFFFFFFFFFFFFFFFFFFFFFFFFF AND DUP2 MSTORE PUSH1 0x20 ADD SWAP1 DUP2 MSTORE PUSH1 0x20 ADD PUSH1 0x0 KECCAK256 PUSH1 0x0 DUP3 DUP3 SLOAD PUSH2 0x2EB SWAP2 SWAP1 PUSH2 0x627 JUMP JUMPDEST SWAP3 POP POP DUP2 SWAP1 SSTORE POP DUP2 PUSH1 0x0 DUP1 DUP4 PUSH20 0xFFFFFFFFFFFFFFFFFFFFFFFFFFFFFFFFFFFFFFFF AND PUSH20 0xFFFFFFFFFFFFFFFFFFFFFFFFFFFFFFFFFFFFFFFF AND DUP2 MSTORE PUSH1 0x20 ADD SWAP1 DUP2 MSTORE PUSH1 0x20 ADD PUSH1 0x0 KECCAK256 PUSH1 0x0 DUP3 DUP3 SLOAD PUSH2 0x340 SWAP2 SWAP1 PUSH2 0x5D1 JUMP JUMPDEST SWAP3 POP POP DUP2 SWAP1 SSTORE POP PUSH32 0xABE1DCF9FCB8E5FB309DB76BCAB112A217AA5754D0F038921282BFE7907AA516 DUP3 DUP3 PUSH1 0x40 MLOAD PUSH2 0x378 SWAP3 SWAP2 SWAP1 PUSH2 0x58C JUMP JUMPDEST PUSH1 0x40 MLOAD DUP1 SWAP2 SUB SWAP1 LOG1 POP POP JUMP JUMPDEST PUSH1 0x0 PUSH1 0x1 SLOAD SWAP1 POP SWAP1 JUMP JUMPDEST PUSH1 0x0 DUP2 CALLDATALOAD SWAP1 POP PUSH2 0x39D DUP2 PUSH2 0x70A JUMP JUMPDEST SWAP3 SWAP2 POP POP JUMP JUMPDEST PUSH1 0x0 DUP2 CALLDATALOAD SWAP1 POP PUSH2 0x3B2 DUP2 PUSH2 0x721 JUMP JUMPDEST SWAP3 SWAP2 POP POP JUMP JUMPDEST PUSH1 0x0 PUSH1 0x20 DUP3 DUP5 SUB SLT ISZERO PUSH2 0x3CA JUMPI PUSH1 0x0 DUP1 REVERT JUMPDEST PUSH1 0x0 PUSH2 0x3D8 DUP5 DUP3 DUP6 ADD PUSH2 0x38E JUMP JUMPDEST SWAP2 POP POP SWAP3 SWAP2 POP POP JUMP JUMPDEST PUSH1 0x0 DUP1 PUSH1 0x40 DUP4 DUP6 SUB SLT ISZERO PUSH2 0x3F4 JUMPI PUSH1 0x0 DUP1 REVERT JUMPDEST PUSH1 0x0 PUSH2 0x402 DUP6 DUP3 DUP7 ADD PUSH2 0x3A3 JUMP JUMPDEST SWAP3 POP POP PUSH1 0x20 PUSH2 0x413 DUP6 DUP3 DUP7 ADD PUSH2 0x38E JUMP JUMPDEST SWAP2 POP POP SWAP3 POP SWAP3 SWAP1 POP JUMP JUMPDEST PUSH2 0x426 DUP2 PUSH2 0x65B JUMP JUMPDEST DUP3 MSTORE POP POP JUMP JUMPDEST PUSH1 0x0 PUSH2 0x437 DUP3 PUSH2 0x5B5 JUMP JUMPDEST PUSH2 0x441 DUP2 DUP6 PUSH2 0x5C0 JUMP JUMPDEST SWAP4 POP PUSH2 0x451 DUP2 DUP6 PUSH1 0x20 DUP7 ADD PUSH2 0x697 JUMP JUMPDEST PUSH2 0x45A DUP2 PUSH2 0x6F9 JUMP JUMPDEST DUP5 ADD SWAP2 POP POP SWAP3 SWAP2 POP POP JUMP JUMPDEST PUSH1 0x0 PUSH2 0x472 PUSH1 0x10 DUP4 PUSH2 0x5C0 JUMP JUMPDEST SWAP2 POP PUSH32 0x4E6F7420656E6F7567682066756E647300000000000000000000000000000000 PUSH1 0x0 DUP4 ADD MSTORE PUSH1 0x20 DUP3 ADD SWAP1 POP SWAP2 SWAP1 POP JUMP JUMPDEST PUSH1 0x0 PUSH2 0x4B2 PUSH1 0x1E DUP4 PUSH2 0x5C0 JUMP JUMPDEST SWAP2 POP PUSH32 0x43616E6E6F7420636F6D706C6574652074686973206F7065726174696F6E0000 PUSH1 0x0 DUP4 ADD MSTORE PUSH1 0x20 DUP3 ADD SWAP1 POP SWAP2 SWAP1 POP JUMP JUMPDEST PUSH2 0x4EE DUP2 PUSH2 0x68D JUMP JUMPDEST DUP3 MSTORE POP POP JUMP JUMPDEST PUSH1 0x0 PUSH1 0x20 DUP3 ADD SWAP1 POP PUSH2 0x509 PUSH1 0x0 DUP4 ADD DUP5 PUSH2 0x41D JUMP JUMPDEST SWAP3 SWAP2 POP POP JUMP JUMPDEST PUSH1 0x0 PUSH1 0x20 DUP3 ADD SWAP1 POP DUP2 DUP2 SUB PUSH1 0x0 DUP4 ADD MSTORE PUSH2 0x529 DUP2 DUP5 PUSH2 0x42C JUMP JUMPDEST SWAP1 POP SWAP3 SWAP2 POP POP JUMP JUMPDEST PUSH1 0x0 PUSH1 0x20 DUP3 ADD SWAP1 POP DUP2 DUP2 SUB PUSH1 0x0 DUP4 ADD MSTORE PUSH2 0x54A DUP2 PUSH2 0x465 JUMP JUMPDEST SWAP1 POP SWAP2 SWAP1 POP JUMP JUMPDEST PUSH1 0x0 PUSH1 0x20 DUP3 ADD SWAP1 POP DUP2 DUP2 SUB PUSH1 0x0 DUP4 ADD MSTORE PUSH2 0x56A DUP2 PUSH2 0x4A5 JUMP JUMPDEST SWAP1 POP SWAP2 SWAP1 POP JUMP JUMPDEST PUSH1 0x0 PUSH1 0x20 DUP3 ADD SWAP1 POP PUSH2 0x586 PUSH1 0x0 DUP4 ADD DUP5 PUSH2 0x4E5 JUMP JUMPDEST SWAP3 SWAP2 POP POP JUMP JUMPDEST PUSH1 0x0 PUSH1 0x40 DUP3 ADD SWAP1 POP PUSH2 0x5A1 PUSH1 0x0 DUP4 ADD DUP6 PUSH2 0x4E5 JUMP JUMPDEST PUSH2 0x5AE PUSH1 0x20 DUP4 ADD DUP5 PUSH2 0x41D JUMP JUMPDEST SWAP4 SWAP3 POP POP POP JUMP JUMPDEST PUSH1 0x0 DUP2 MLOAD SWAP1 POP SWAP2 SWAP1 POP JUMP JUMPDEST PUSH1 0x0 DUP3 DUP3 MSTORE PUSH1 0x20 DUP3 ADD SWAP1 POP SWAP3 SWAP2 POP POP JUMP JUMPDEST PUSH1 0x0 PUSH2 0x5DC DUP3 PUSH2 0x68D JUMP JUMPDEST SWAP2 POP PUSH2 0x5E7 DUP4 PUSH2 0x68D JUMP JUMPDEST SWAP3 POP DUP3 PUSH32 0xFFFFFFFFFFFFFFFFFFFFFFFFFFFFFFFFFFFFFFFFFFFFFFFFFFFFFFFFFFFFFFFF SUB DUP3 GT ISZERO PUSH2 0x61C JUMPI PUSH2 0x61B PUSH2 0x6CA JUMP JUMPDEST JUMPDEST DUP3 DUP3 ADD SWAP1 POP SWAP3 SWAP2 POP POP JUMP JUMPDEST PUSH1 0x0 PUSH2 0x632 DUP3 PUSH2 0x68D JUMP JUMPDEST SWAP2 POP PUSH2 0x63D DUP4 PUSH2 0x68D JUMP JUMPDEST SWAP3 POP DUP3 DUP3 LT ISZERO PUSH2 0x650 JUMPI PUSH2 0x64F PUSH2 0x6CA JUMP JUMPDEST JUMPDEST DUP3 DUP3 SUB SWAP1 POP SWAP3 SWAP2 POP POP JUMP JUMPDEST PUSH1 0x0 PUSH2 0x666 DUP3 PUSH2 0x66D JUMP JUMPDEST SWAP1 POP SWAP2 SWAP1 POP JUMP JUMPDEST PUSH1 0x0 PUSH20 0xFFFFFFFFFFFFFFFFFFFFFFFFFFFFFFFFFFFFFFFF DUP3 AND SWAP1 POP SWAP2 SWAP1 POP JUMP JUMPDEST PUSH1 0x0 DUP2 SWAP1 POP SWAP2 SWAP1 POP JUMP JUMPDEST PUSH1 0x0 JUMPDEST DUP4 DUP2 LT ISZERO PUSH2 0x6B5 JUMPI DUP1 DUP3 ADD MLOAD DUP2 DUP5 ADD MSTORE PUSH1 0x20 DUP2 ADD SWAP1 POP PUSH2 0x69A JUMP JUMPDEST DUP4 DUP2 GT ISZERO PUSH2 0x6C4 JUMPI PUSH1 0x0 DUP5 DUP5 ADD MSTORE JUMPDEST POP POP POP POP JUMP JUMPDEST PUSH32 0x4E487B7100000000000000000000000000000000000000000000000000000000 PUSH1 0x0 MSTORE PUSH1 0x11 PUSH1 0x4 MSTORE PUSH1 0x24 PUSH1 0x0 REVERT JUMPDEST PUSH1 0x0 PUSH1 0x1F NOT PUSH1 0x1F DUP4 ADD AND SWAP1 POP SWAP2 SWAP1 POP JUMP JUMPDEST PUSH2 0x713 DUP2 PUSH2 0x65B JUMP JUMPDEST DUP2 EQ PUSH2 0x71E JUMPI PUSH1 0x0 DUP1 REVERT JUMPDEST POP JUMP JUMPDEST PUSH2 0x72A DUP2 PUSH2 0x68D JUMP JUMPDEST DUP2 EQ PUSH2 0x735 JUMPI PUSH1 0x0 DUP1 REVERT JUMPDEST POP JUMP INVALID LOG2 PUSH5 0x6970667358 0x22 SLT KECCAK256 BLOCKHASH 0xEE 0xB2 0x23 PUSH7 0xA5BF4401CB5D2C 0x1E STOP 0xD5 SWAP5 MSIZE 0xEC ADDRESS NOT MUL PUSH14 0x19F542180F0E8AFF6C6E64736F6C PUSH4 0x43000800 STOP CALLER "
        },
        "methodIdentifiers": {
          "balanceOf(address)": "70a08231",
          "getOwnerAddress()": "0c4f65bd",
          "getTotalSupply()": "c4e41b22",
          "name()": "06fdde03",
          "transfer(uint256,address)": "b7760c8f"
        }
      }
    }
  }
}