{
  "_format": "hh-sol-artifact-1",
  "contractName": "Token",
  "sourceName": "contracts/Token.sol",
  "abi": [
    {
      "inputs": [
        {
          "internalType": "uint256",
          "name": "totalSupply_",
          "type": "uint256"
        }
      ],
      "stateMutability": "nonpayable",
      "type": "constructor"
    },
    {
      "anonymous": false,
      "inputs": [
        {
          "indexed": false,
          "internalType": "uint256",
          "name": "amount",
          "type": "uint256"
        },
        {
          "indexed": false,
          "internalType": "address",
          "name": "to",
          "type": "address"
        }
      ],
      "name": "Transfer",
      "type": "event"
    },
    {
      "inputs": [
        {
          "internalType": "address",
          "name": "_account",
          "type": "address"
        }
      ],
      "name": "balanceOf",
      "outputs": [
        {
          "internalType": "uint256",
          "name": "",
          "type": "uint256"
        }
      ],
      "stateMutability": "view",
      "type": "function"
    },
    {
      "inputs": [],
      "name": "getOwnerAddress",
      "outputs": [
        {
          "internalType": "address",
          "name": "",
          "type": "address"
        }
      ],
      "stateMutability": "view",
      "type": "function"
    },
    {
      "inputs": [],
      "name": "getTotalSupply",
      "outputs": [
        {
          "internalType": "uint256",
          "name": "",
          "type": "uint256"
        }
      ],
      "stateMutability": "view",
      "type": "function"
    },
    {
      "inputs": [],
      "name": "name",
      "outputs": [
        {
          "internalType": "string",
          "name": "",
          "type": "string"
        }
      ],
      "stateMutability": "view",
      "type": "function"
    },
    {
      "inputs": [
        {
          "internalType": "uint256",
          "name": "_amount",
          "type": "uint256"
        },
        {
          "internalType": "address",
          "name": "_to",
          "type": "address"
        }
      ],
      "name": "transfer",
      "outputs": [],
      "stateMutability": "nonpayable",
      "type": "function"
    }
  ],
  "bytecode": "0x608060405234801561001057600080fd5b506040516108c33803806108c3833981810160405281019061003291906100fc565b8060018190555033600260006101000a81548173ffffffffffffffffffffffffffffffffffffffff021916908373ffffffffffffffffffffffffffffffffffffffff160217905550600154600080600260009054906101000a900473ffffffffffffffffffffffffffffffffffffffff1673ffffffffffffffffffffffffffffffffffffffff1673ffffffffffffffffffffffffffffffffffffffff1681526020019081526020016000208190555050610146565b6000815190506100f68161012f565b92915050565b60006020828403121561010e57600080fd5b600061011c848285016100e7565b91505092915050565b6000819050919050565b61013881610125565b811461014357600080fd5b50565b61076e806101556000396000f3fe608060405234801561001057600080fd5b50600436106100575760003560e01c806306fdde031461005c5780630c4f65bd1461007a57806370a0823114610098578063b7760c8f146100c8578063c4e41b22146100e4575b600080fd5b610064610102565b604051610071919061050f565b60405180910390f35b61008261013b565b60405161008f91906104f4565b60405180910390f35b6100b260048036038101906100ad91906103b8565b610165565b6040516100bf9190610571565b60405180910390f35b6100e260048036038101906100dd91906103e1565b61021c565b005b6100ec610384565b6040516100f99190610571565b60405180910390f35b6040518060400160405280600881526020017f4d7920546f6b656e00000000000000000000000000000000000000000000000081525081565b6000600260009054906101000a900473ffffffffffffffffffffffffffffffffffffffff16905090565b60008073ffffffffffffffffffffffffffffffffffffffff168273ffffffffffffffffffffffffffffffffffffffff1614156101d6576040517f08c379a00000000000000000000000000000000000000000000000000000000081526004016101cd90610551565b60405180910390fd5b6000808373ffffffffffffffffffffffffffffffffffffffff1673ffffffffffffffffffffffffffffffffffffffff168152602001908152602001600020549050919050565b816000803373ffffffffffffffffffffffffffffffffffffffff1673ffffffffffffffffffffffffffffffffffffffff16815260200190815260200160002054101561029d576040517f08c379a000000000000000000000000000000000000000000000000000000000815260040161029490610531565b60405180910390fd5b816000803373ffffffffffffffffffffffffffffffffffffffff1673ffffffffffffffffffffffffffffffffffffffff16815260200190815260200160002060008282546102eb9190610627565b92505081905550816000808373ffffffffffffffffffffffffffffffffffffffff1673ffffffffffffffffffffffffffffffffffffffff168152602001908152602001600020600082825461034091906105d1565b925050819055507fabe1dcf9fcb8e5fb309db76bcab112a217aa5754d0f038921282bfe7907aa516828260405161037892919061058c565b60405180910390a15050565b6000600154905090565b60008135905061039d8161070a565b92915050565b6000813590506103b281610721565b92915050565b6000602082840312156103ca57600080fd5b60006103d88482850161038e565b91505092915050565b600080604083850312156103f457600080fd5b6000610402858286016103a3565b92505060206104138582860161038e565b9150509250929050565b6104268161065b565b82525050565b6000610437826105b5565b61044181856105c0565b9350610451818560208601610697565b61045a816106f9565b840191505092915050565b60006104726010836105c0565b91507f4e6f7420656e6f7567682066756e6473000000000000000000000000000000006000830152602082019050919050565b60006104b2601e836105c0565b91507f43616e6e6f7420636f6d706c6574652074686973206f7065726174696f6e00006000830152602082019050919050565b6104ee8161068d565b82525050565b6000602082019050610509600083018461041d565b92915050565b60006020820190508181036000830152610529818461042c565b905092915050565b6000602082019050818103600083015261054a81610465565b9050919050565b6000602082019050818103600083015261056a816104a5565b9050919050565b600060208201905061058660008301846104e5565b92915050565b60006040820190506105a160008301856104e5565b6105ae602083018461041d565b9392505050565b600081519050919050565b600082825260208201905092915050565b60006105dc8261068d565b91506105e78361068d565b9250827fffffffffffffffffffffffffffffffffffffffffffffffffffffffffffffffff0382111561061c5761061b6106ca565b5b828201905092915050565b60006106328261068d565b915061063d8361068d565b9250828210156106505761064f6106ca565b5b828203905092915050565b60006106668261066d565b9050919050565b600073ffffffffffffffffffffffffffffffffffffffff82169050919050565b6000819050919050565b60005b838110156106b557808201518184015260208101905061069a565b838111156106c4576000848401525b50505050565b7f4e487b7100000000000000000000000000000000000000000000000000000000600052601160045260246000fd5b6000601f19601f8301169050919050565b6107138161065b565b811461071e57600080fd5b50565b61072a8161068d565b811461073557600080fd5b5056fea264697066735822122040eeb22366a5bf4401cb5d2c1e00d59459ec3019026d19f542180f0e8aff6c6e64736f6c63430008000033",
  "linkReferences": {},
  "deployedLinkReferences": {}
}